{
  "contractName": "KYC",
  "abi": [
    {
      "inputs": [],
      "payable": false,
      "stateMutability": "nonpayable",
      "type": "constructor"
    },
    {
      "anonymous": false,
      "inputs": [
        {
          "indexed": false,
          "internalType": "bytes32",
          "name": "id",
          "type": "bytes32"
        }
      ],
      "name": "LogNewCustomer",
      "type": "event"
    },
    {
      "constant": true,
      "inputs": [],
      "name": "customerCount",
      "outputs": [
        {
          "internalType": "uint256",
          "name": "",
          "type": "uint256"
        }
      ],
      "payable": false,
      "stateMutability": "view",
      "type": "function"
    },
    {
      "constant": true,
      "inputs": [],
      "name": "owner",
      "outputs": [
        {
          "internalType": "address",
          "name": "",
          "type": "address"
        }
      ],
      "payable": false,
      "stateMutability": "view",
      "type": "function"
    },
    {
      "constant": true,
      "inputs": [
        {
          "internalType": "bytes32",
          "name": "id",
          "type": "bytes32"
        }
      ],
      "name": "getCustomer",
      "outputs": [
        {
          "internalType": "bytes32",
          "name": "signature",
          "type": "bytes32"
        },
        {
          "internalType": "bytes32",
          "name": "publicKey",
          "type": "bytes32"
        },
        {
          "internalType": "bytes16",
          "name": "timestamp",
          "type": "bytes16"
        }
      ],
      "payable": false,
      "stateMutability": "view",
      "type": "function"
    },
    {
      "constant": false,
      "inputs": [
        {
          "internalType": "bytes32",
          "name": "id",
          "type": "bytes32"
        },
        {
          "internalType": "bytes32",
          "name": "signature",
          "type": "bytes32"
        },
        {
          "internalType": "bytes32",
          "name": "publicKey",
          "type": "bytes32"
        },
        {
          "internalType": "bytes16",
          "name": "timestamp",
          "type": "bytes16"
        }
      ],
      "name": "newCustomer",
      "outputs": [
        {
          "internalType": "bool",
          "name": "",
          "type": "bool"
        }
      ],
      "payable": true,
      "stateMutability": "payable",
      "type": "function"
    }
  ],
  "bytecode": "0x608060405234801561001057600080fd5b50336000806101000a81548173ffffffffffffffffffffffffffffffffffffffff021916908373ffffffffffffffffffffffffffffffffffffffff1602179055506000600181905550610365806100686000396000f3fe60806040526004361061003f5760003560e01c80638da5cb5b146100445780639757e8a31461009b578063b248cc68146100c6578063eb89d8661461013d575b600080fd5b34801561005057600080fd5b506100596101c0565b604051808273ffffffffffffffffffffffffffffffffffffffff1673ffffffffffffffffffffffffffffffffffffffff16815260200191505060405180910390f35b3480156100a757600080fd5b506100b06101e5565b6040518082815260200191505060405180910390f35b610123600480360360808110156100dc57600080fd5b8101908080359060200190929190803590602001909291908035906020019092919080356fffffffffffffffffffffffffffffffff191690602001909291905050506101eb565b604051808215151515815260200191505060405180910390f35b34801561014957600080fd5b506101766004803603602081101561016057600080fd5b81019080803590602001909291905050506102c3565b60405180848152602001838152602001826fffffffffffffffffffffffffffffffff19166fffffffffffffffffffffffffffffffff19168152602001935050505060405180910390f35b6000809054906101000a900473ffffffffffffffffffffffffffffffffffffffff1681565b60015481565b60007fa795a55db56c5b1ff2b383ed7bd4057571fd3f35d105f6af2e01626e687e7820856040518082815260200191505060405180910390a16040518060600160405280858152602001848152602001836fffffffffffffffffffffffffffffffff191681525060026000878152602001908152602001600020600082015181600001556020820151816001015560408201518160020160006101000a8154816fffffffffffffffffffffffffffffffff021916908360801c0217905550905050600180540160018190555060019050949350505050565b600080600060026000858152602001908152602001600020600001549250600260008581526020019081526020016000206001015491506002600085815260200190815260200160002060020160009054906101000a900460801b9050828282925092509250919390925056fea265627a7a72315820c77d4c1ac8a3e2740ebc120fce43eab5f4d217cdffa904ddcbd8092b7e6dd16f64736f6c63430005100032",
  "source": "pragma solidity >=0.4.22 <0.8.0;\n\ncontract KYC {\n    address public owner;\n    uint public customerCount;\n\n    // Store customers by unique ID\n    mapping (bytes32 => Customer) private customers;\n\n    struct Customer {\n        bytes32 signature;\n        bytes32 publicKey;\n        bytes16 timestamp;\n    }\n\n    event LogNewCustomer(bytes32 id);\n\n    constructor() public {\n        owner = msg.sender;\n        customerCount = 0;\n    }\n\n    function getCustomer(bytes32 id) public view returns (bytes32 signature, bytes32 publicKey, bytes16 timestamp) {\n        signature = customers[id].signature;\n        publicKey = customers[id].publicKey;\n        timestamp = customers[id].timestamp;\n        return (signature, publicKey, timestamp);\n    }\n\n    function newCustomer(bytes32 id, bytes32 signature, bytes32 publicKey, bytes16 timestamp) public payable returns(bool) {\n        emit LogNewCustomer(id);\n        customers[id] = Customer({signature: signature, publicKey: publicKey, timestamp: timestamp});\n        customerCount = customerCount + 1;\n        return true;\n    }\n\n}",
  "sourcePath": "/home/ziga328/blockchain-dev/kyc-project/api/contracts/KYC.sol",
  "compiler": {
    "name": "solc",
    "version": "0.5.16+commit.9c3226ce.Emscripten.clang"
  },
  "schemaVersion": "3.3.2",
  "updatedAt": "2020-11-20T00:51:07.720Z",
  "devdoc": {
    "methods": {}
  },
  "userdoc": {
    "methods": {}
  }
}