{
  "contractName": "KYC",
  "abi": [
    {
      "inputs": [],
      "stateMutability": "nonpayable",
      "type": "constructor"
    },
    {
      "anonymous": false,
      "inputs": [
        {
          "indexed": false,
          "internalType": "address",
          "name": "customerAddr",
          "type": "address"
        }
      ],
      "name": "LogAddCustomer",
      "type": "event"
    },
    {
      "anonymous": false,
      "inputs": [
        {
          "indexed": false,
          "internalType": "address",
          "name": "customerAddr",
          "type": "address"
        }
      ],
      "name": "LogClearCustomer",
      "type": "event"
    },
    {
      "anonymous": false,
      "inputs": [],
      "name": "LogContractStopped",
      "type": "event"
    },
    {
      "anonymous": false,
      "inputs": [
        {
          "indexed": true,
          "internalType": "address",
          "name": "previousOwner",
          "type": "address"
        },
        {
          "indexed": true,
          "internalType": "address",
          "name": "newOwner",
          "type": "address"
        }
      ],
      "name": "OwnershipTransferred",
      "type": "event"
    },
    {
      "inputs": [],
      "name": "customerCount",
      "outputs": [
        {
          "internalType": "uint256",
          "name": "",
          "type": "uint256"
        }
      ],
      "stateMutability": "view",
      "type": "function",
      "constant": true
    },
    {
      "inputs": [],
      "name": "owner",
      "outputs": [
        {
          "internalType": "address",
          "name": "",
          "type": "address"
        }
      ],
      "stateMutability": "view",
      "type": "function",
      "constant": true
    },
    {
      "inputs": [],
      "name": "renounceOwnership",
      "outputs": [],
      "stateMutability": "nonpayable",
      "type": "function"
    },
    {
      "inputs": [],
      "name": "stopped",
      "outputs": [
        {
          "internalType": "bool",
          "name": "",
          "type": "bool"
        }
      ],
      "stateMutability": "view",
      "type": "function",
      "constant": true
    },
    {
      "inputs": [
        {
          "internalType": "address",
          "name": "newOwner",
          "type": "address"
        }
      ],
      "name": "transferOwnership",
      "outputs": [],
      "stateMutability": "nonpayable",
      "type": "function"
    },
    {
      "inputs": [
        {
          "internalType": "address",
          "name": "customerAddr",
          "type": "address"
        }
      ],
      "name": "getCustomer",
      "outputs": [
        {
          "internalType": "bytes",
          "name": "signature",
          "type": "bytes"
        },
        {
          "internalType": "address",
          "name": "verifiedBy",
          "type": "address"
        },
        {
          "internalType": "string",
          "name": "verifiedAt",
          "type": "string"
        },
        {
          "internalType": "string",
          "name": "documentProvided",
          "type": "string"
        },
        {
          "internalType": "bool",
          "name": "exists",
          "type": "bool"
        }
      ],
      "stateMutability": "view",
      "type": "function",
      "constant": true
    },
    {
      "inputs": [
        {
          "internalType": "address",
          "name": "customerAddr",
          "type": "address"
        },
        {
          "internalType": "bytes",
          "name": "signature",
          "type": "bytes"
        },
        {
          "internalType": "address",
          "name": "verifiedBy",
          "type": "address"
        },
        {
          "internalType": "string",
          "name": "verifiedAt",
          "type": "string"
        },
        {
          "internalType": "string",
          "name": "documentProvided",
          "type": "string"
        }
      ],
      "name": "addCustomer",
      "outputs": [],
      "stateMutability": "nonpayable",
      "type": "function"
    },
    {
      "inputs": [
        {
          "internalType": "address",
          "name": "customerAddr",
          "type": "address"
        }
      ],
      "name": "clearCustomer",
      "outputs": [],
      "stateMutability": "nonpayable",
      "type": "function"
    },
    {
      "inputs": [],
      "name": "stopContract",
      "outputs": [],
      "stateMutability": "nonpayable",
      "type": "function"
    },
    {
      "inputs": [],
      "name": "kill",
      "outputs": [],
      "stateMutability": "nonpayable",
      "type": "function"
    }
  ],
  "bytecode": "0x608060405234801561001057600080fd5b5060006100216100e760201b60201c565b9050806000806101000a81548173ffffffffffffffffffffffffffffffffffffffff021916908373ffffffffffffffffffffffffffffffffffffffff1602179055508073ffffffffffffffffffffffffffffffffffffffff16600073ffffffffffffffffffffffffffffffffffffffff167f8be0079c531659141344cd1fd0a4f28419497f9722a3daafe3b4186f6b6457e060405160405180910390a35060006001819055506000600260006101000a81548160ff0219169083151502179055506100ef565b600033905090565b611653806100fe6000396000f3fe608060405234801561001057600080fd5b506004361061009e5760003560e01c80638da5cb5b116100665780638da5cb5b146101275780639757e8a3146101715780639b784c6c1461018f578063cb949e51146103b8578063f2fde38b1461058b5761009e565b806310ff5bb9146100a357806312253a6c146100e757806341c0e1b5146100f1578063715018a6146100fb57806375f12b2114610105575b600080fd5b6100e5600480360360208110156100b957600080fd5b81019080803573ffffffffffffffffffffffffffffffffffffffff1690602001909291905050506105cf565b005b6100ef61085e565b005b6100f9610970565b005b610103610a59565b005b61010d610be1565b604051808215151515815260200191505060405180910390f35b61012f610bf4565b604051808273ffffffffffffffffffffffffffffffffffffffff1673ffffffffffffffffffffffffffffffffffffffff16815260200191505060405180910390f35b610179610c1d565b6040518082815260200191505060405180910390f35b6103b6600480360360a08110156101a557600080fd5b81019080803573ffffffffffffffffffffffffffffffffffffffff169060200190929190803590602001906401000000008111156101e257600080fd5b8201836020820111156101f457600080fd5b8035906020019184600183028401116401000000008311171561021657600080fd5b91908080601f016020809104026020016040519081016040528093929190818152602001838380828437600081840152601f19601f820116905080830192505050505050509192919290803573ffffffffffffffffffffffffffffffffffffffff1690602001909291908035906020019064010000000081111561029957600080fd5b8201836020820111156102ab57600080fd5b803590602001918460018302840111640100000000831117156102cd57600080fd5b91908080601f016020809104026020016040519081016040528093929190818152602001838380828437600081840152601f19601f8201169050808301925050505050505091929192908035906020019064010000000081111561033057600080fd5b82018360208201111561034257600080fd5b8035906020019184600183028401116401000000008311171561036457600080fd5b91908080601f016020809104026020016040519081016040528093929190818152602001838380828437600081840152601f19601f820116905080830192505050505050509192919290505050610c23565b005b6103fa600480360360208110156103ce57600080fd5b81019080803573ffffffffffffffffffffffffffffffffffffffff169060200190929190505050610e4e565b60405180806020018673ffffffffffffffffffffffffffffffffffffffff1673ffffffffffffffffffffffffffffffffffffffff168152602001806020018060200185151515158152602001848103845289818151815260200191508051906020019080838360005b8381101561047e578082015181840152602081019050610463565b50505050905090810190601f1680156104ab5780820380516001836020036101000a031916815260200191505b50848103835287818151815260200191508051906020019080838360005b838110156104e45780820151818401526020810190506104c9565b50505050905090810190601f1680156105115780820380516001836020036101000a031916815260200191505b50848103825286818151815260200191508051906020019080838360005b8381101561054a57808201518184015260208101905061052f565b50505050905090810190601f1680156105775780820380516001836020036101000a031916815260200191505b509850505050505050505060405180910390f35b6105cd600480360360208110156105a157600080fd5b81019080803573ffffffffffffffffffffffffffffffffffffffff1690602001909291905050506111bd565b005b600260009054906101000a900460ff16156105e957600080fd5b7f70e75640da2cc45d653f6c9073865d0a6370a890bcd47cb891e4638a71f754e081604051808273ffffffffffffffffffffffffffffffffffffffff1673ffffffffffffffffffffffffffffffffffffffff16815260200191505060405180910390a160405180602001604052806000815250600360008373ffffffffffffffffffffffffffffffffffffffff1673ffffffffffffffffffffffffffffffffffffffff16815260200190815260200160002060000190805190602001906106b19291906113d2565b506000600360008373ffffffffffffffffffffffffffffffffffffffff1673ffffffffffffffffffffffffffffffffffffffff16815260200190815260200160002060010160006101000a81548173ffffffffffffffffffffffffffffffffffffffff021916908373ffffffffffffffffffffffffffffffffffffffff16021790555060405180602001604052806000815250600360008373ffffffffffffffffffffffffffffffffffffffff1673ffffffffffffffffffffffffffffffffffffffff1681526020019081526020016000206002019080519060200190610799929190611452565b5060405180602001604052806000815250600360008373ffffffffffffffffffffffffffffffffffffffff1673ffffffffffffffffffffffffffffffffffffffff16815260200190815260200160002060030190805190602001906107ff929190611452565b506000600360008373ffffffffffffffffffffffffffffffffffffffff1673ffffffffffffffffffffffffffffffffffffffff16815260200190815260200160002060040160006101000a81548160ff02191690831515021790555050565b6108666113ca565b73ffffffffffffffffffffffffffffffffffffffff166000809054906101000a900473ffffffffffffffffffffffffffffffffffffffff1673ffffffffffffffffffffffffffffffffffffffff1614610927576040517f08c379a00000000000000000000000000000000000000000000000000000000081526004018080602001828103825260208152602001807f4f776e61626c653a2063616c6c6572206973206e6f7420746865206f776e657281525060200191505060405180910390fd5b7f271eeaa027ef2b0ef7f9c88ade99794e43f75016f0320df12ea62b72a74e268660405160405180910390a16001600260006101000a81548160ff021916908315150217905550565b6109786113ca565b73ffffffffffffffffffffffffffffffffffffffff166000809054906101000a900473ffffffffffffffffffffffffffffffffffffffff1673ffffffffffffffffffffffffffffffffffffffff1614610a39576040517f08c379a00000000000000000000000000000000000000000000000000000000081526004018080602001828103825260208152602001807f4f776e61626c653a2063616c6c6572206973206e6f7420746865206f776e657281525060200191505060405180910390fd5b610a41610bf4565b73ffffffffffffffffffffffffffffffffffffffff16ff5b610a616113ca565b73ffffffffffffffffffffffffffffffffffffffff166000809054906101000a900473ffffffffffffffffffffffffffffffffffffffff1673ffffffffffffffffffffffffffffffffffffffff1614610b22576040517f08c379a00000000000000000000000000000000000000000000000000000000081526004018080602001828103825260208152602001807f4f776e61626c653a2063616c6c6572206973206e6f7420746865206f776e657281525060200191505060405180910390fd5b600073ffffffffffffffffffffffffffffffffffffffff166000809054906101000a900473ffffffffffffffffffffffffffffffffffffffff1673ffffffffffffffffffffffffffffffffffffffff167f8be0079c531659141344cd1fd0a4f28419497f9722a3daafe3b4186f6b6457e060405160405180910390a360008060006101000a81548173ffffffffffffffffffffffffffffffffffffffff021916908373ffffffffffffffffffffffffffffffffffffffff160217905550565b600260009054906101000a900460ff1681565b60008060009054906101000a900473ffffffffffffffffffffffffffffffffffffffff16905090565b60015481565b600260009054906101000a900460ff1615610c3d57600080fd5b84600360008273ffffffffffffffffffffffffffffffffffffffff1673ffffffffffffffffffffffffffffffffffffffff16815260200190815260200160002060040160009054906101000a900460ff1615610c9857600080fd5b7fa579b3d5eb976f2948dd17affc7f72ef2b90c67dfc7b798f9ab7778ea42c8d9186604051808273ffffffffffffffffffffffffffffffffffffffff1673ffffffffffffffffffffffffffffffffffffffff16815260200191505060405180910390a16040518060a001604052808681526020018573ffffffffffffffffffffffffffffffffffffffff16815260200184815260200183815260200160011515815250600360008873ffffffffffffffffffffffffffffffffffffffff1673ffffffffffffffffffffffffffffffffffffffff1681526020019081526020016000206000820151816000019080519060200190610d969291906114d2565b5060208201518160010160006101000a81548173ffffffffffffffffffffffffffffffffffffffff021916908373ffffffffffffffffffffffffffffffffffffffff1602179055506040820151816002019080519060200190610dfa929190611552565b506060820151816003019080519060200190610e17929190611552565b5060808201518160040160006101000a81548160ff0219169083151502179055509050506001805401600181905550505050505050565b606060006060806000600360008773ffffffffffffffffffffffffffffffffffffffff1673ffffffffffffffffffffffffffffffffffffffff1681526020019081526020016000206000018054600181600116156101000203166002900480601f016020809104026020016040519081016040528092919081815260200182805460018160011615610100020316600290048015610f2d5780601f10610f0257610100808354040283529160200191610f2d565b820191906000526020600020905b815481529060010190602001808311610f1057829003601f168201915b50505050509450600360008773ffffffffffffffffffffffffffffffffffffffff1673ffffffffffffffffffffffffffffffffffffffff16815260200190815260200160002060010160009054906101000a900473ffffffffffffffffffffffffffffffffffffffff169350600360008773ffffffffffffffffffffffffffffffffffffffff1673ffffffffffffffffffffffffffffffffffffffff1681526020019081526020016000206002018054600181600116156101000203166002900480601f01602080910402602001604051908101604052809291908181526020018280546001816001161561010002031660029004801561106f5780601f106110445761010080835404028352916020019161106f565b820191906000526020600020905b81548152906001019060200180831161105257829003601f168201915b50505050509250600360008773ffffffffffffffffffffffffffffffffffffffff1673ffffffffffffffffffffffffffffffffffffffff1681526020019081526020016000206003018054600181600116156101000203166002900480601f01602080910402602001604051908101604052809291908181526020018280546001816001161561010002031660029004801561114c5780601f106111215761010080835404028352916020019161114c565b820191906000526020600020905b81548152906001019060200180831161112f57829003601f168201915b50505050509150600360008773ffffffffffffffffffffffffffffffffffffffff1673ffffffffffffffffffffffffffffffffffffffff16815260200190815260200160002060040160009054906101000a900460ff16905084848484849450945094509450945091939590929450565b6111c56113ca565b73ffffffffffffffffffffffffffffffffffffffff166000809054906101000a900473ffffffffffffffffffffffffffffffffffffffff1673ffffffffffffffffffffffffffffffffffffffff1614611286576040517f08c379a00000000000000000000000000000000000000000000000000000000081526004018080602001828103825260208152602001807f4f776e61626c653a2063616c6c6572206973206e6f7420746865206f776e657281525060200191505060405180910390fd5b600073ffffffffffffffffffffffffffffffffffffffff168173ffffffffffffffffffffffffffffffffffffffff16141561130c576040517f08c379a00000000000000000000000000000000000000000000000000000000081526004018080602001828103825260268152602001806115f86026913960400191505060405180910390fd5b8073ffffffffffffffffffffffffffffffffffffffff166000809054906101000a900473ffffffffffffffffffffffffffffffffffffffff1673ffffffffffffffffffffffffffffffffffffffff167f8be0079c531659141344cd1fd0a4f28419497f9722a3daafe3b4186f6b6457e060405160405180910390a3806000806101000a81548173ffffffffffffffffffffffffffffffffffffffff021916908373ffffffffffffffffffffffffffffffffffffffff16021790555050565b600033905090565b828054600181600116156101000203166002900490600052602060002090601f016020900481019282601f1061141357805160ff1916838001178555611441565b82800160010185558215611441579182015b82811115611440578251825591602001919060010190611425565b5b50905061144e91906115d2565b5090565b828054600181600116156101000203166002900490600052602060002090601f016020900481019282601f1061149357805160ff19168380011785556114c1565b828001600101855582156114c1579182015b828111156114c05782518255916020019190600101906114a5565b5b5090506114ce91906115d2565b5090565b828054600181600116156101000203166002900490600052602060002090601f016020900481019282601f1061151357805160ff1916838001178555611541565b82800160010185558215611541579182015b82811115611540578251825591602001919060010190611525565b5b50905061154e91906115d2565b5090565b828054600181600116156101000203166002900490600052602060002090601f016020900481019282601f1061159357805160ff19168380011785556115c1565b828001600101855582156115c1579182015b828111156115c05782518255916020019190600101906115a5565b5b5090506115ce91906115d2565b5090565b6115f491905b808211156115f05760008160009055506001016115d8565b5090565b9056fe4f776e61626c653a206e6577206f776e657220697320746865207a65726f2061646472657373a26469706673582212200c9f45211c08bce652487c6f2a464befb77a3b0aaa6ece6d4e40c5d8a05138b964736f6c63430006000033",
  "source": "pragma solidity >=0.4.22 <0.8.0;\nimport \"@openzeppelin/contracts/access/Ownable.sol\";\n\n// @title Know Your Customer prototype\n// @author j-mac0y (GitHub)\n// @notice This contract is only a prototype and should not be used in production. It stores details of identity verification performed on customers by a financial institution, so that the verification only has to be done once for each customer.\ncontract KYC is Ownable {\n    \n    uint public customerCount;\n    bool public stopped;\n\n    // Store customers in a mapping\n    mapping (address => Customer) private customers;\n\n    struct Customer {\n        bytes signature;\n        address verifiedBy;\n        string verifiedAt;\n        string documentProvided;\n        bool exists;\n    }\n\n    event LogAddCustomer(address customerAddr);\n    event LogContractStopped();\n    event LogClearCustomer(address customerAddr);\n    \n    modifier isNotCustomer(address customerAddr) {\n        require(!customers[customerAddr].exists);\n        _;\n    }\n\n    // Implement circuit breaker pattern\n    modifier isNotStopped() {\n        require(!stopped);\n        _;\n    }\n\n    constructor() public {\n        // Set the account that instantiated the contract as the owner\n        customerCount = 0;\n        stopped = false;\n    }\n\n    // @notice Get signature and validation details of a customer from the customer mapping by address\n    // @param address The account address of the customer\n    // @return All customer details stored in the Customer struct\n    function getCustomer(address customerAddr) \n    public view returns (bytes memory signature, address verifiedBy, string memory verifiedAt, string memory documentProvided, bool exists) {\n        signature = customers[customerAddr].signature;\n        verifiedBy = customers[customerAddr].verifiedBy;\n        verifiedAt = customers[customerAddr].verifiedAt;\n        documentProvided = customers[customerAddr].documentProvided;\n        exists = customers[customerAddr].exists;\n        return (signature, verifiedBy, verifiedAt, documentProvided, exists);\n    }\n\n    // @notice Add a new customer to the mapping, showing the details of their identity verification\n    // @param customerAddr The account address of the customer to add\n    // @param signature The signature of the customer (hashed and encrypted on client side)\n    // @param verifiedBy The account that verified them (same as the customer for this prototype)\n    // @param verifiedAt Time the user was verified using UTC timestamp since epoch format\n    // @param documentProvided The document used to verify the details they provided (hard coded - out of scope for prototype)\n    function addCustomer(address customerAddr, bytes memory signature, address verifiedBy, string memory verifiedAt, string memory documentProvided) \n    public isNotStopped() isNotCustomer(customerAddr) {\n        emit LogAddCustomer(customerAddr);\n        customers[customerAddr] = Customer({signature: signature, verifiedBy: verifiedBy, verifiedAt: verifiedAt, documentProvided: documentProvided, exists: true});\n        customerCount = customerCount + 1;\n    }\n\n    // @notice Clears verification details for a customer. \n    // @dev For demonstration purposes only, should be disabled in production.\n    function clearCustomer(address customerAddr)\n    public isNotStopped() {\n        emit LogClearCustomer(customerAddr);\n        customers[customerAddr].signature = \"\";\n        customers[customerAddr].verifiedBy = address(0);\n        customers[customerAddr].verifiedAt = \"\";\n        customers[customerAddr].documentProvided = \"\";\n        customers[customerAddr].exists = false;\n    }\n\n    // @notice Implement circuit breaker design pattern to freeze adding customers.\n    function stopContract()\n    public onlyOwner() {\n        emit LogContractStopped();\n        stopped = true;\n    }\n\n    // @notice Implement mortal design pattern in case the contract should be self destructed.\n    function kill()\n    public onlyOwner()\n    {\n           selfdestruct(address(uint160(owner()))); // cast owner to address payable\n    }\n}",
  "sourcePath": "/home/ziga328/blockchain-dev/kyc-project/api/contracts/KYC.sol",
  "compiler": {
    "name": "solc",
    "version": "0.6.0+commit.26b70077.Emscripten.clang"
  },
  "schemaVersion": "3.3.2",
  "updatedAt": "2020-11-30T08:55:27.665Z",
  "networkType": "ethereum",
  "devdoc": {
    "methods": {
      "owner()": {
        "details": "Returns the address of the current owner."
      },
      "renounceOwnership()": {
        "details": "Leaves the contract without owner. It will not be possible to call `onlyOwner` functions anymore. Can only be called by the current owner.     * NOTE: Renouncing ownership will leave the contract without an owner, thereby removing any functionality that is only available to the owner."
      },
      "transferOwnership(address)": {
        "details": "Transfers ownership of the contract to a new account (`newOwner`). Can only be called by the current owner."
      }
    }
  },
  "userdoc": {
    "methods": {}
  }
}