{
  "contractName": "KYC",
  "abi": [
    {
      "inputs": [],
      "payable": false,
      "stateMutability": "nonpayable",
      "type": "constructor"
    },
    {
      "anonymous": false,
      "inputs": [
        {
          "indexed": false,
          "internalType": "address",
          "name": "customerAddr",
          "type": "address"
        }
      ],
      "name": "LogNewCustomer",
      "type": "event"
    },
    {
      "constant": true,
      "inputs": [],
      "name": "customerCount",
      "outputs": [
        {
          "internalType": "uint256",
          "name": "",
          "type": "uint256"
        }
      ],
      "payable": false,
      "stateMutability": "view",
      "type": "function"
    },
    {
      "constant": true,
      "inputs": [],
      "name": "owner",
      "outputs": [
        {
          "internalType": "address",
          "name": "",
          "type": "address"
        }
      ],
      "payable": false,
      "stateMutability": "view",
      "type": "function"
    },
    {
      "constant": true,
      "inputs": [
        {
          "internalType": "address",
          "name": "customerAddr",
          "type": "address"
        }
      ],
      "name": "getCustomer",
      "outputs": [
        {
          "internalType": "bytes",
          "name": "signature",
          "type": "bytes"
        },
        {
          "internalType": "address",
          "name": "verifiedBy",
          "type": "address"
        },
        {
          "internalType": "string",
          "name": "verifiedAt",
          "type": "string"
        },
        {
          "internalType": "string",
          "name": "documentProvided",
          "type": "string"
        },
        {
          "internalType": "bool",
          "name": "exists",
          "type": "bool"
        }
      ],
      "payable": false,
      "stateMutability": "view",
      "type": "function"
    },
    {
      "constant": false,
      "inputs": [
        {
          "internalType": "address",
          "name": "customerAddr",
          "type": "address"
        },
        {
          "internalType": "bytes",
          "name": "signature",
          "type": "bytes"
        },
        {
          "internalType": "address",
          "name": "verifiedBy",
          "type": "address"
        },
        {
          "internalType": "string",
          "name": "verifiedAt",
          "type": "string"
        },
        {
          "internalType": "string",
          "name": "documentProvided",
          "type": "string"
        }
      ],
      "name": "addCustomer",
      "outputs": [
        {
          "internalType": "bool",
          "name": "",
          "type": "bool"
        }
      ],
      "payable": false,
      "stateMutability": "nonpayable",
      "type": "function"
    }
  ],
  "bytecode": "0x608060405234801561001057600080fd5b50336000806101000a81548173ffffffffffffffffffffffffffffffffffffffff021916908373ffffffffffffffffffffffffffffffffffffffff1602179055506000600181905550610c33806100686000396000f3fe608060405234801561001057600080fd5b506004361061004c5760003560e01c80638da5cb5b146100515780639757e8a31461009b5780639b784c6c146100b9578063cb949e51146102fa575b600080fd5b6100596104cd565b604051808273ffffffffffffffffffffffffffffffffffffffff1673ffffffffffffffffffffffffffffffffffffffff16815260200191505060405180910390f35b6100a36104f2565b6040518082815260200191505060405180910390f35b6102e0600480360360a08110156100cf57600080fd5b81019080803573ffffffffffffffffffffffffffffffffffffffff1690602001909291908035906020019064010000000081111561010c57600080fd5b82018360208201111561011e57600080fd5b8035906020019184600183028401116401000000008311171561014057600080fd5b91908080601f016020809104026020016040519081016040528093929190818152602001838380828437600081840152601f19601f820116905080830192505050505050509192919290803573ffffffffffffffffffffffffffffffffffffffff169060200190929190803590602001906401000000008111156101c357600080fd5b8201836020820111156101d557600080fd5b803590602001918460018302840111640100000000831117156101f757600080fd5b91908080601f016020809104026020016040519081016040528093929190818152602001838380828437600081840152601f19601f8201169050808301925050505050505091929192908035906020019064010000000081111561025a57600080fd5b82018360208201111561026c57600080fd5b8035906020019184600183028401116401000000008311171561028e57600080fd5b91908080601f016020809104026020016040519081016040528093929190818152602001838380828437600081840152601f19601f8201169050808301925050505050505091929192905050506104f8565b604051808215151515815260200191505060405180910390f35b61033c6004803603602081101561031057600080fd5b81019080803573ffffffffffffffffffffffffffffffffffffffff16906020019092919050505061076a565b60405180806020018673ffffffffffffffffffffffffffffffffffffffff1673ffffffffffffffffffffffffffffffffffffffff168152602001806020018060200185151515158152602001848103845289818151815260200191508051906020019080838360005b838110156103c05780820151818401526020810190506103a5565b50505050905090810190601f1680156103ed5780820380516001836020036101000a031916815260200191505b50848103835287818151815260200191508051906020019080838360005b8381101561042657808201518184015260208101905061040b565b50505050905090810190601f1680156104535780820380516001836020036101000a031916815260200191505b50848103825286818151815260200191508051906020019080838360005b8381101561048c578082015181840152602081019050610471565b50505050905090810190601f1680156104b95780820380516001836020036101000a031916815260200191505b509850505050505050505060405180910390f35b6000809054906101000a900473ffffffffffffffffffffffffffffffffffffffff1681565b60015481565b60008060009054906101000a900473ffffffffffffffffffffffffffffffffffffffff1673ffffffffffffffffffffffffffffffffffffffff163373ffffffffffffffffffffffffffffffffffffffff161461055357600080fd5b85600260008273ffffffffffffffffffffffffffffffffffffffff1673ffffffffffffffffffffffffffffffffffffffff16815260200190815260200160002060040160009054906101000a900460ff16156105ae57600080fd5b7f4616fba1cf00e95b2ebbbb59f1244eb9ccc9af546cdc19a5e82465a17c878a8687604051808273ffffffffffffffffffffffffffffffffffffffff1673ffffffffffffffffffffffffffffffffffffffff16815260200191505060405180910390a16040518060a001604052808781526020018673ffffffffffffffffffffffffffffffffffffffff16815260200185815260200184815260200160011515815250600260008973ffffffffffffffffffffffffffffffffffffffff1673ffffffffffffffffffffffffffffffffffffffff16815260200190815260200160002060008201518160000190805190602001906106ac929190610ad9565b5060208201518160010160006101000a81548173ffffffffffffffffffffffffffffffffffffffff021916908373ffffffffffffffffffffffffffffffffffffffff1602179055506040820151816002019080519060200190610710929190610b59565b50606082015181600301908051906020019061072d929190610b59565b5060808201518160040160006101000a81548160ff0219169083151502179055509050506001805401600181905550600191505095945050505050565b606060006060806000600260008773ffffffffffffffffffffffffffffffffffffffff1673ffffffffffffffffffffffffffffffffffffffff1681526020019081526020016000206000018054600181600116156101000203166002900480601f0160208091040260200160405190810160405280929190818152602001828054600181600116156101000203166002900480156108495780601f1061081e57610100808354040283529160200191610849565b820191906000526020600020905b81548152906001019060200180831161082c57829003601f168201915b50505050509450600260008773ffffffffffffffffffffffffffffffffffffffff1673ffffffffffffffffffffffffffffffffffffffff16815260200190815260200160002060010160009054906101000a900473ffffffffffffffffffffffffffffffffffffffff169350600260008773ffffffffffffffffffffffffffffffffffffffff1673ffffffffffffffffffffffffffffffffffffffff1681526020019081526020016000206002018054600181600116156101000203166002900480601f01602080910402602001604051908101604052809291908181526020018280546001816001161561010002031660029004801561098b5780601f106109605761010080835404028352916020019161098b565b820191906000526020600020905b81548152906001019060200180831161096e57829003601f168201915b50505050509250600260008773ffffffffffffffffffffffffffffffffffffffff1673ffffffffffffffffffffffffffffffffffffffff1681526020019081526020016000206003018054600181600116156101000203166002900480601f016020809104026020016040519081016040528092919081815260200182805460018160011615610100020316600290048015610a685780601f10610a3d57610100808354040283529160200191610a68565b820191906000526020600020905b815481529060010190602001808311610a4b57829003601f168201915b50505050509150600260008773ffffffffffffffffffffffffffffffffffffffff1673ffffffffffffffffffffffffffffffffffffffff16815260200190815260200160002060040160009054906101000a900460ff16905084848484849450945094509450945091939590929450565b828054600181600116156101000203166002900490600052602060002090601f016020900481019282601f10610b1a57805160ff1916838001178555610b48565b82800160010185558215610b48579182015b82811115610b47578251825591602001919060010190610b2c565b5b509050610b559190610bd9565b5090565b828054600181600116156101000203166002900490600052602060002090601f016020900481019282601f10610b9a57805160ff1916838001178555610bc8565b82800160010185558215610bc8579182015b82811115610bc7578251825591602001919060010190610bac565b5b509050610bd59190610bd9565b5090565b610bfb91905b80821115610bf7576000816000905550600101610bdf565b5090565b9056fea265627a7a72315820498180b0394259778514201cfedabb6c0f68b60a7fb486bfabcba6c781ae401164736f6c63430005100032",
  "source": "pragma solidity >=0.4.22 <0.8.0;\n\ncontract KYC {\n    \n    address public owner;\n    uint public customerCount;\n\n    // Store customers in a mapping\n    mapping (address => Customer) private customers;\n\n    address[] private verifiers;\n\n    struct Customer {\n        bytes signature;\n        address verifiedBy;\n        string verifiedAt;\n        string documentProvided;\n        bool exists;\n    }\n\n    event LogNewCustomer(address customerAddr);\n\n    modifier isOwner() {\n        require(msg.sender == owner);\n        _;\n    }\n\n    modifier isNotCustomer(address customerAddr) {\n        require(!customers[customerAddr].exists);\n        _;\n    }\n\n    constructor() public {\n        // Set the account that instantiated the contract as the owner\n        owner = msg.sender;\n        customerCount = 0;\n    }\n\n    function getCustomer(address customerAddr) public view returns (bytes memory signature, address verifiedBy, string memory verifiedAt, string memory documentProvided, bool exists) {\n        signature = customers[customerAddr].signature;\n        verifiedBy = customers[customerAddr].verifiedBy;\n        verifiedAt = customers[customerAddr].verifiedAt;\n        documentProvided = customers[customerAddr].documentProvided;\n        exists = customers[customerAddr].exists;\n        return (signature, verifiedBy, verifiedAt, documentProvided, exists);\n    }\n\n    function addCustomer(address customerAddr, bytes memory signature, address verifiedBy, string memory verifiedAt, string memory documentProvided) \n    public isOwner() isNotCustomer(customerAddr) returns(bool) {\n        emit LogNewCustomer(customerAddr);\n        customers[customerAddr] = Customer({signature: signature, verifiedBy: verifiedBy, verifiedAt: verifiedAt, documentProvided: documentProvided, exists: true});\n        customerCount = customerCount + 1;\n        return true;\n    }\n\n}",
  "sourcePath": "/home/ziga328/blockchain-dev/kyc-project/api/contracts/KYC.sol",
  "compiler": {
    "name": "solc",
    "version": "0.5.16+commit.9c3226ce.Emscripten.clang"
  },
  "schemaVersion": "3.3.2",
  "updatedAt": "2020-11-27T04:07:00.859Z",
  "networkType": "ethereum",
  "devdoc": {
    "methods": {}
  },
  "userdoc": {
    "methods": {}
  }
}